{
  "contractName": "ListeSomme",
  "abi": [
    {
      "inputs": [],
      "stateMutability": "nonpayable",
      "type": "constructor"
    },
    {
      "inputs": [
        {
          "internalType": "uint256",
          "name": "_nombre",
          "type": "uint256"
        }
      ],
      "name": "ajouterNombre",
      "outputs": [],
      "stateMutability": "nonpayable",
      "type": "function"
    },
    {
      "inputs": [
        {
          "internalType": "uint256",
          "name": "index",
          "type": "uint256"
        }
      ],
      "name": "getElement",
      "outputs": [
        {
          "internalType": "uint256",
          "name": "",
          "type": "uint256"
        }
      ],
      "stateMutability": "view",
      "type": "function"
    },
    {
      "inputs": [],
      "name": "afficheTableau",
      "outputs": [
        {
          "internalType": "uint256[]",
          "name": "",
          "type": "uint256[]"
        }
      ],
      "stateMutability": "view",
      "type": "function"
    },
    {
      "inputs": [],
      "name": "calculerSomme",
      "outputs": [
        {
          "internalType": "uint256",
          "name": "somme",
          "type": "uint256"
        }
      ],
      "stateMutability": "view",
      "type": "function"
    }
  ],
  "bytecode": "0x608060405234801561000f575f80fd5b505f6001908060018154018082558091505060019003905f5260205f20015f90919091909150555f6002908060018154018082558091505060019003905f5260205f20015f90919091909150555f6003908060018154018082558091505060019003905f5260205f20015f90919091909150556104f28061008f5f395ff3fe608060405234801561000f575f80fd5b506004361061004a575f3560e01c80631f4440b01461004e5780633a7d22bc1461006c578063bd92c6671461009c578063e66df334146100b8575b5f80fd5b6100566100d6565b60405161006391906102cf565b60405180910390f35b6100866004803603810190610081919061031d565b61012b565b6040516100939190610357565b60405180910390f35b6100b660048036038101906100b1919061031d565b610195565b005b6100c06101bd565b6040516100cd9190610357565b60405180910390f35b60605f80548060200260200160405190810160405280929190818152602001828054801561012157602002820191905f5260205f20905b81548152602001906001019080831161010d575b5050505050905090565b5f80805490508210610172576040517f08c379a0000000000000000000000000000000000000000000000000000000008152600401610169906103ca565b60405180910390fd5b5f8281548110610185576101846103e8565b5b905f5260205f2001549050919050565b5f81908060018154018082558091505060019003905f5260205f20015f909190919091505550565b5f805f90505b5f8054905081101561020b575f81815481106101e2576101e16103e8565b5b905f5260205f200154826101f69190610442565b9150808061020390610475565b9150506101c3565b5090565b5f81519050919050565b5f82825260208201905092915050565b5f819050602082019050919050565b5f819050919050565b61024a81610238565b82525050565b5f61025b8383610241565b60208301905092915050565b5f602082019050919050565b5f61027d8261020f565b6102878185610219565b935061029283610229565b805f5b838110156102c25781516102a98882610250565b97506102b483610267565b925050600181019050610295565b5085935050505092915050565b5f6020820190508181035f8301526102e78184610273565b905092915050565b5f80fd5b6102fc81610238565b8114610306575f80fd5b50565b5f81359050610317816102f3565b92915050565b5f60208284031215610332576103316102ef565b5b5f61033f84828501610309565b91505092915050565b61035181610238565b82525050565b5f60208201905061036a5f830184610348565b92915050565b5f82825260208201905092915050565b7f496e64657820696e76616c6964650000000000000000000000000000000000005f82015250565b5f6103b4600e83610370565b91506103bf82610380565b602082019050919050565b5f6020820190508181035f8301526103e1816103a8565b9050919050565b7f4e487b71000000000000000000000000000000000000000000000000000000005f52603260045260245ffd5b7f4e487b71000000000000000000000000000000000000000000000000000000005f52601160045260245ffd5b5f61044c82610238565b915061045783610238565b925082820190508082111561046f5761046e610415565b5b92915050565b5f61047f82610238565b91507fffffffffffffffffffffffffffffffffffffffffffffffffffffffffffffffff82036104b1576104b0610415565b5b60018201905091905056fea2646970667358221220970a35ea93a465d8b8cb50746d92b74698c50c4c50c4959534773dc351f9ea8764736f6c63430008150033",
  "immutableReferences": {},
  "source": "// SPDX-License-Identifier: MIT\npragma solidity >=0.4.22 <0.9.0;\n\ncontract ListeSomme {\n    uint[] private nombres;  // tableau dynamique de uint\n\n    // Initialisation dans le constructeur\n    constructor() {\n        nombres.push(1);\n        nombres.push(2);\n        nombres.push(3);\n    }\n\n    // Ajouter un nombre au tableau\n    function ajouterNombre(uint _nombre) public {\n        nombres.push(_nombre);\n    }\n\n    // Rcuprer un lment  un index donn avec vrification\n    function getElement(uint index) public view returns (uint) {\n        require(index < nombres.length, \"Index invalide\");\n        return nombres[index];\n    }\n\n    // Retourner le tableau complet\n    function afficheTableau() public view returns (uint[] memory) {\n        return nombres;\n    }\n\n    // Calculer la somme de tous les lments\n    function calculerSomme() public view returns (uint somme) {\n        for (uint i = 0; i < nombres.length; i++) {\n            somme += nombres[i];\n        }\n    }\n}\n",
  "sourcePath": "C:\\Users\\dell\\Downloads\\TP3\\contracts\\ListeSomme.sol",
  "compiler": {
    "name": "solc",
    "version": "0.8.21+commit.d9974bed.Emscripten.clang"
  },
  "schemaVersion": "3.4.16",
  "updatedAt": "2025-07-27T14:16:20.870Z",
  "devdoc": {
    "kind": "dev",
    "methods": {},
    "version": 1
  },
  "userdoc": {
    "kind": "user",
    "methods": {},
    "version": 1
  }
}