{
  "contractName": "ConversionCrypto",
  "abi": [
    {
      "inputs": [
        {
          "internalType": "uint256",
          "name": "montantEther",
          "type": "uint256"
        }
      ],
      "name": "etherEnWei",
      "outputs": [
        {
          "internalType": "uint256",
          "name": "",
          "type": "uint256"
        }
      ],
      "stateMutability": "pure",
      "type": "function"
    },
    {
      "inputs": [
        {
          "internalType": "uint256",
          "name": "montantWei",
          "type": "uint256"
        }
      ],
      "name": "weiEnEther",
      "outputs": [
        {
          "internalType": "uint256",
          "name": "",
          "type": "uint256"
        }
      ],
      "stateMutability": "pure",
      "type": "function"
    }
  ],
  "bytecode": "0x608060405234801561000f575f80fd5b5061025b8061001d5f395ff3fe608060405234801561000f575f80fd5b5060043610610034575f3560e01c806318b5d6e514610038578063b5fcda3414610068575b5f80fd5b610052600480360381019061004d9190610107565b610098565b60405161005f9190610141565b60405180910390f35b610082600480360381019061007d9190610107565b6100b4565b60405161008f9190610141565b60405180910390f35b5f670de0b6b3a7640000826100ad91906101b4565b9050919050565b5f670de0b6b3a7640000826100c991906101e4565b9050919050565b5f80fd5b5f819050919050565b6100e6816100d4565b81146100f0575f80fd5b50565b5f81359050610101816100dd565b92915050565b5f6020828403121561011c5761011b6100d0565b5b5f610129848285016100f3565b91505092915050565b61013b816100d4565b82525050565b5f6020820190506101545f830184610132565b92915050565b7f4e487b71000000000000000000000000000000000000000000000000000000005f52601260045260245ffd5b7f4e487b71000000000000000000000000000000000000000000000000000000005f52601160045260245ffd5b5f6101be826100d4565b91506101c9836100d4565b9250826101d9576101d861015a565b5b828204905092915050565b5f6101ee826100d4565b91506101f9836100d4565b9250828202610207816100d4565b9150828204841483151761021e5761021d610187565b5b509291505056fea2646970667358221220d60fd1896a55f697d5107e8988674a70932131acf44c562e7d12f23da506d6a164736f6c63430008150033",
  "immutableReferences": {},
  "source": "// SPDX-License-Identifier: MIT\npragma solidity >=0.4.22 <0.9.0;\n\ncontract ConversionCrypto {\n    function etherEnWei(uint montantEther) public pure returns (uint) {\n        return montantEther * 1 ether;\n    }\n\n    function weiEnEther(uint montantWei) public pure returns (uint) {\n        return montantWei / 1 ether;\n    }\n}\n",
  "sourcePath": "C:\\Users\\dell\\Downloads\\TP3\\contracts\\ConversionCrypto.sol",
  "compiler": {
    "name": "solc",
    "version": "0.8.21+commit.d9974bed.Emscripten.clang"
  },
  "schemaVersion": "3.4.16",
  "updatedAt": "2025-07-29T11:20:29.091Z",
  "devdoc": {
    "kind": "dev",
    "methods": {},
    "version": 1
  },
  "userdoc": {
    "kind": "user",
    "methods": {},
    "version": 1
  }
}