{
  "contractName": "NombreChecker",
  "abi": [
    {
      "inputs": [
        {
          "internalType": "int256",
          "name": "nombre",
          "type": "int256"
        }
      ],
      "name": "estPositif",
      "outputs": [
        {
          "internalType": "bool",
          "name": "",
          "type": "bool"
        }
      ],
      "stateMutability": "pure",
      "type": "function"
    }
  ],
  "bytecode": "0x608060405234801561000f575f80fd5b5061011d8061001d5f395ff3fe6080604052348015600e575f80fd5b50600436106026575f3560e01c8063fa046abd14602a575b5f80fd5b60406004803603810190603c91906092565b6054565b604051604b919060d0565b60405180910390f35b5f808212159050919050565b5f80fd5b5f819050919050565b6074816064565b8114607d575f80fd5b50565b5f81359050608c81606d565b92915050565b5f6020828403121560a45760a36060565b5b5f60af848285016080565b91505092915050565b5f8115159050919050565b60ca8160b8565b82525050565b5f60208201905060e15f83018460c3565b9291505056fea26469706673582212201102ddc02d8252f30df24cc23bfa2c1aeafa489fedbe24705bf8ee00f5f93d8064736f6c63430008150033",
  "immutableReferences": {},
  "source": "// SPDX-License-Identifier: MIT\npragma solidity >=0.4.22 <0.9.0;\n\ncontract NombreChecker {\n\n    // Vérifie si un nombre est positif (>= 0)\n    function estPositif(int nombre) public pure returns (bool) {\n        return nombre >= 0;\n    }\n}\n",
  "sourcePath": "C:\\Users\\dell\\Downloads\\TP3\\contracts\\NombreChecker.sol",
  "compiler": {
    "name": "solc",
    "version": "0.8.21+commit.d9974bed.Emscripten.clang"
  },
  "schemaVersion": "3.4.16",
  "updatedAt": "2025-07-29T11:20:29.125Z",
  "devdoc": {
    "kind": "dev",
    "methods": {},
    "version": 1
  },
  "userdoc": {
    "kind": "user",
    "methods": {},
    "version": 1
  }
}