{
  "contractName": "Payment",
  "abi": [
    {
      "inputs": [
        {
          "internalType": "address",
          "name": "_recipient",
          "type": "address"
        }
      ],
      "stateMutability": "nonpayable",
      "type": "constructor"
    },
    {
      "inputs": [],
      "name": "recipient",
      "outputs": [
        {
          "internalType": "address",
          "name": "",
          "type": "address"
        }
      ],
      "stateMutability": "view",
      "type": "function"
    },
    {
      "inputs": [],
      "name": "receivePayment",
      "outputs": [],
      "stateMutability": "payable",
      "type": "function"
    },
    {
      "inputs": [],
      "name": "withdraw",
      "outputs": [],
      "stateMutability": "nonpayable",
      "type": "function"
    }
  ],
  "bytecode": "0x608060405234801561000f575f80fd5b506040516104a03803806104a0833981810160405281019061003191906100d4565b805f806101000a81548173ffffffffffffffffffffffffffffffffffffffff021916908373ffffffffffffffffffffffffffffffffffffffff160217905550506100ff565b5f80fd5b5f73ffffffffffffffffffffffffffffffffffffffff82169050919050565b5f6100a38261007a565b9050919050565b6100b381610099565b81146100bd575f80fd5b50565b5f815190506100ce816100aa565b92915050565b5f602082840312156100e9576100e8610076565b5b5f6100f6848285016100c0565b91505092915050565b6103948061010c5f395ff3fe608060405260043610610033575f3560e01c80633ccfd60b1461003757806366d003ac1461004d578063835c19f314610077575b5f80fd5b348015610042575f80fd5b5061004b610081565b005b348015610058575f80fd5b50610061610173565b60405161006e9190610219565b60405180910390f35b61007f610196565b005b5f8054906101000a900473ffffffffffffffffffffffffffffffffffffffff1673ffffffffffffffffffffffffffffffffffffffff163373ffffffffffffffffffffffffffffffffffffffff161461010e576040517f08c379a0000000000000000000000000000000000000000000000000000000008152600401610105906102b2565b60405180910390fd5b5f8054906101000a900473ffffffffffffffffffffffffffffffffffffffff1673ffffffffffffffffffffffffffffffffffffffff166108fc4790811502906040515f60405180830381858888f19350505050158015610170573d5f803e3d5ffd5b50565b5f8054906101000a900473ffffffffffffffffffffffffffffffffffffffff1681565b5f34116101d8576040517f08c379a00000000000000000000000000000000000000000000000000000000081526004016101cf90610340565b60405180910390fd5b565b5f73ffffffffffffffffffffffffffffffffffffffff82169050919050565b5f610203826101da565b9050919050565b610213816101f9565b82525050565b5f60208201905061022c5f83018461020a565b92915050565b5f82825260208201905092915050565b7f5365756c206c652064657374696e6174616972652070657574207265746972655f8201527f72206c657320666f6e6473000000000000000000000000000000000000000000602082015250565b5f61029c602b83610232565b91506102a782610242565b604082019050919050565b5f6020820190508181035f8301526102c981610290565b9050919050565b7f4c65206d6f6e74616e7420646f697420657472652073757065726965757220615f8201527f2030000000000000000000000000000000000000000000000000000000000000602082015250565b5f61032a602283610232565b9150610335826102d0565b604082019050919050565b5f6020820190508181035f8301526103578161031e565b905091905056fea264697066735822122065c4a42f5cddbc880609c3f606b68b6d7355759eb4a635251c4839fe22f4465164736f6c63430008150033",
  "immutableReferences": {},
  "source": "// SPDX-License-Identifier: MIT\npragma solidity >=0.4.22 <0.9.0;\n\n\ncontract Payment {\n    // Adresse du destinataire\n    address public recipient;\n\n    // Constructeur : initialise l'adresse du destinataire\n    constructor(address _recipient) {\n        recipient = _recipient;\n    }\n\n    // Fonction pour recevoir un paiement (payable)\n    function receivePayment() public payable {\n        require(msg.value > 0, \"Le montant doit etre superieur a 0\");\n        // Les ethers restent dans le contrat (jusqu' ce que recipient les retire)\n    }\n\n    // Fonction pour retirer les fonds (par le destinataire uniquement)\n    function withdraw() public {\n        require(msg.sender == recipient, \"Seul le destinataire peut retirer les fonds\");\n        payable(recipient).transfer(address(this).balance);\n    }\n}\n",
  "sourcePath": "C:\\Users\\dell\\Downloads\\TP3\\contracts\\Payment.sol",
  "compiler": {
    "name": "solc",
    "version": "0.8.21+commit.d9974bed.Emscripten.clang"
  },
  "schemaVersion": "3.4.16",
  "updatedAt": "2025-07-29T11:20:29.130Z",
  "devdoc": {
    "kind": "dev",
    "methods": {},
    "version": 1
  },
  "userdoc": {
    "kind": "user",
    "methods": {},
    "version": 1
  }
}