{
  "contractName": "Rectangle",
  "abi": [
    {
      "inputs": [
        {
          "internalType": "uint256",
          "name": "_x",
          "type": "uint256"
        },
        {
          "internalType": "uint256",
          "name": "_y",
          "type": "uint256"
        },
        {
          "internalType": "uint256",
          "name": "_lo",
          "type": "uint256"
        },
        {
          "internalType": "uint256",
          "name": "_la",
          "type": "uint256"
        }
      ],
      "stateMutability": "nonpayable",
      "type": "constructor"
    },
    {
      "inputs": [],
      "name": "afficheXY",
      "outputs": [
        {
          "internalType": "uint256",
          "name": "",
          "type": "uint256"
        },
        {
          "internalType": "uint256",
          "name": "",
          "type": "uint256"
        }
      ],
      "stateMutability": "view",
      "type": "function"
    },
    {
      "inputs": [
        {
          "internalType": "uint256",
          "name": "dx",
          "type": "uint256"
        },
        {
          "internalType": "uint256",
          "name": "dy",
          "type": "uint256"
        }
      ],
      "name": "deplacerForme",
      "outputs": [],
      "stateMutability": "nonpayable",
      "type": "function"
    },
    {
      "inputs": [],
      "name": "la",
      "outputs": [
        {
          "internalType": "uint256",
          "name": "",
          "type": "uint256"
        }
      ],
      "stateMutability": "view",
      "type": "function"
    },
    {
      "inputs": [],
      "name": "lo",
      "outputs": [
        {
          "internalType": "uint256",
          "name": "",
          "type": "uint256"
        }
      ],
      "stateMutability": "view",
      "type": "function"
    },
    {
      "inputs": [],
      "name": "x",
      "outputs": [
        {
          "internalType": "uint256",
          "name": "",
          "type": "uint256"
        }
      ],
      "stateMutability": "view",
      "type": "function"
    },
    {
      "inputs": [],
      "name": "y",
      "outputs": [
        {
          "internalType": "uint256",
          "name": "",
          "type": "uint256"
        }
      ],
      "stateMutability": "view",
      "type": "function"
    },
    {
      "inputs": [],
      "name": "surface",
      "outputs": [
        {
          "internalType": "uint256",
          "name": "",
          "type": "uint256"
        }
      ],
      "stateMutability": "view",
      "type": "function"
    },
    {
      "inputs": [],
      "name": "afficheInfos",
      "outputs": [
        {
          "internalType": "string",
          "name": "",
          "type": "string"
        }
      ],
      "stateMutability": "view",
      "type": "function"
    },
    {
      "inputs": [],
      "name": "afficheLoLa",
      "outputs": [
        {
          "internalType": "uint256",
          "name": "",
          "type": "uint256"
        },
        {
          "internalType": "uint256",
          "name": "",
          "type": "uint256"
        }
      ],
      "stateMutability": "view",
      "type": "function"
    }
  ],
  "bytecode": "0x608060405234801561000f575f80fd5b506040516105a53803806105a583398181016040528101906100319190610090565b8383815f819055508060018190555050508160028190555080600381905550505050506100f4565b5f80fd5b5f819050919050565b61006f8161005d565b8114610079575f80fd5b50565b5f8151905061008a81610066565b92915050565b5f805f80608085870312156100a8576100a7610059565b5b5f6100b58782880161007c565b94505060206100c68782880161007c565b93505060406100d78782880161007c565b92505060606100e88782880161007c565b91505092959194509250565b6104a4806101015f395ff3fe608060405234801561000f575f80fd5b5060043610610091575f3560e01c806390c33c3f1161006457806390c33c3f1461010e5780639361c2321461012c578063a56dfe4a14610148578063cd514e4014610166578063cfa8d7a41461018557610091565b80630c55699c146100955780630e94ba83146100b35780637780c14f146100d157806383a443a6146100ef575b5f80fd5b61009d6101a3565b6040516100aa9190610277565b60405180910390f35b6100bb6101a8565b6040516100c89190610277565b60405180910390f35b6100d96101be565b6040516100e69190610277565b60405180910390f35b6100f76101c4565b604051610105929190610290565b60405180910390f35b6101166101d4565b6040516101239190610277565b60405180910390f35b610146600480360381019061014191906102e5565b6101da565b005b61015061020d565b60405161015d9190610277565b60405180910390f35b61016e610213565b60405161017c929190610290565b60405180910390f35b61018d610222565b60405161019a91906103ad565b60405180910390f35b5f5481565b5f6003546002546101b991906103fa565b905090565b60025481565b5f80600254600354915091509091565b60035481565b815f808282546101ea919061043b565b925050819055508060015f828254610202919061043b565b925050819055505050565b60015481565b5f805f54600154915091509091565b60606040518060400160405280601181526020017f4a6520737569732052656374616e676c65000000000000000000000000000000815250905090565b5f819050919050565b6102718161025f565b82525050565b5f60208201905061028a5f830184610268565b92915050565b5f6040820190506102a35f830185610268565b6102b06020830184610268565b9392505050565b5f80fd5b6102c48161025f565b81146102ce575f80fd5b50565b5f813590506102df816102bb565b92915050565b5f80604083850312156102fb576102fa6102b7565b5b5f610308858286016102d1565b9250506020610319858286016102d1565b9150509250929050565b5f81519050919050565b5f82825260208201905092915050565b5f5b8381101561035a57808201518184015260208101905061033f565b5f8484015250505050565b5f601f19601f8301169050919050565b5f61037f82610323565b610389818561032d565b935061039981856020860161033d565b6103a281610365565b840191505092915050565b5f6020820190508181035f8301526103c58184610375565b905092915050565b7f4e487b71000000000000000000000000000000000000000000000000000000005f52601160045260245ffd5b5f6104048261025f565b915061040f8361025f565b925082820261041d8161025f565b91508282048414831517610434576104336103cd565b5b5092915050565b5f6104458261025f565b91506104508361025f565b9250828201905080821115610468576104676103cd565b5b9291505056fea26469706673582212205d852ea1621aadfb28636b335caedf965667af8bdaf92c0a0f0d11b08316aece64736f6c63430008150033",
  "immutableReferences": {},
  "source": "// SPDX-License-Identifier: MIT\r\npragma solidity >=0.4.22 <0.9.0;\r\n\r\nabstract contract Forme {\r\n    uint public x;\r\n    uint public y;\r\n\r\n    constructor(uint _x, uint _y) {\r\n        x = _x;\r\n        y = _y;\r\n    }\r\n\r\n    function deplacerForme(uint dx, uint dy) public {\r\n        x += dx;\r\n        y += dy;\r\n    }\r\n\r\n    function afficheXY() public view returns (uint, uint) {\r\n        return (x, y);\r\n    }\r\n\r\n    function afficheInfos() public view virtual returns (string memory);\r\n\r\n    function surface() public view virtual returns (uint);\r\n}\r\n\r\ncontract Rectangle is Forme {\r\n    uint public lo;\r\n    uint public la;\r\n\r\n    constructor(uint _x, uint _y, uint _lo, uint _la) Forme(_x, _y) {\r\n        lo = _lo;\r\n        la = _la;\r\n    }\r\n\r\n    function surface() public view override returns (uint) {\r\n        return lo * la;\r\n    }\r\n\r\n    function afficheInfos() public view override returns (string memory) {\r\n        return \"Je suis Rectangle\";\r\n    }\r\n\r\n    function afficheLoLa() public view returns (uint, uint) {\r\n        return (lo, la);\r\n    }\r\n}\r\n",
  "sourcePath": "C:\\Users\\dell\\Downloads\\TP3\\contracts\\Exercice7_Forme_Rectangle.sol",
  "compiler": {
    "name": "solc",
    "version": "0.8.21+commit.d9974bed.Emscripten.clang"
  },
  "schemaVersion": "3.4.16",
  "updatedAt": "2025-07-29T11:20:29.110Z",
  "devdoc": {
    "kind": "dev",
    "methods": {},
    "version": 1
  },
  "userdoc": {
    "kind": "user",
    "methods": {},
    "version": 1
  }
}